{
  "contractName": "Crowd",
  "abi": [
    {
      "constant": true,
      "inputs": [],
      "name": "balance",
      "outputs": [
        {
          "internalType": "uint256",
          "name": "",
          "type": "uint256"
        }
      ],
      "payable": false,
      "stateMutability": "view",
      "type": "function"
    },
    {
      "constant": false,
      "inputs": [],
      "name": "donateFund",
      "outputs": [],
      "payable": true,
      "stateMutability": "payable",
      "type": "function"
    }
  ],
  "bytecode": "0x608060405260008055348015601357600080fd5b5060a3806100226000396000f3fe60806040526004361060265760003560e01c80633849cff314602b578063b69ef8a8146033575b600080fd5b6031605b565b005b348015603e57600080fd5b5060456068565b6040518082815260200191505060405180910390f35b3460005401600081905550565b6000548156fea265627a7a723158206999e91e6e5dbdf0e53e5196b947e2f366e5a5b7649185fa2e304b6a45c2d61764736f6c63430005100032",
  "source": "// SPDX-License-Identifier: MIT\r\npragma solidity >=0.4.22 <0.8.0;\r\n\r\ncontract Crowd {\r\n   uint256 public balance=0;\r\n   function donateFund() payable public {\r\n      balance=balance+msg.value;\r\n   }\r\n}",
  "sourcePath": "C:\\Users\\PATILSAIKIRAN\\OneDrive\\Desktop\\crowd fund\\contracts\\Crowd.sol",
  "compiler": {
    "name": "solc",
    "version": "0.5.16+commit.9c3226ce.Emscripten.clang"
  },
  "schemaVersion": "3.4.4",
  "updatedAt": "2022-11-19T12:49:47.471Z",
  "networkType": "ethereum",
  "devdoc": {
    "methods": {}
  },
  "userdoc": {
    "methods": {}
  }
}